:020000040800F2
:1000000010150020B1010008050A000805080008C5
:10001000010A0008F9010008151C00080000000092
:1000200000000000000000000000000015120008A1
:10003000FD01000800000000C7010008A51300082A
:10004000CB010008CB010008CB010008CB01000860
:10005000CB010008CB010008CB010008CB01000850
:10006000CB010008CB010008CB010008CB01000840
:10007000CB010008CB010008CB010008CB01000830
:10008000CB010008CB010008CB010008CB01000820
:10009000CB010008CB010008CB010008CB01000810
:1000A000CB010008CB010008CB010008CB01000800
:1000B000CB010008CB010008CB010008CB010008F0
:1000C000CB010008CB010008CB010008CB010008E0
:1000D000CB010008CB010008CB010008CB010008D0
:1000E000CB010008CB010008CB010008CB010008C0
:1000F000CB010008CB010008CB010008CB010008B0
:10010000CB010008CB010008CB010008CB0100089F
:10011000CB010008CB010008CB010008CB0100088F
:10012000CB010008CB010008CB010008CB0100087F
:10013000CB010008CB010008CB010008CB0100086F
:10014000CB010008CB010008CB010008CB0100085F
:10015000CB010008CB010008CB010008CB0100084F
:10016000CB010008CB010008CB010008CB0100083F
:10017000CB010008CB010008CB010008CB0100082F
:10018000CB010008CB010008CB010008CB0100081F
:10019000CB010008CB010008DFF810D000F01AF8FE
:1001A00000480047D91C0008AFF30080101500205C
:1001B0000648804706480047FEE7FEE7FEE7FEE701
:1001C000FEE7FEE7FEE7FEE7FEE7FEE7A91300080D
:1001D00099010008064C074D06E0E06840F0010375
:1001E00094E8070098471034AC42F6D3FFF7D8FFE5
:1001F0007C1F00089C1F000800BFFEE7704700003E
:1002000000B585B00121042000F044FE01218803DF
:1002100000F040FE4FF40070ADF8100018208DF88B
:10022000130003208DF8120004A9154800F048F9C6
:100230004FF48060ADF8100048208DF813000020C6
:100240008DF8120004A90E4800F03AF94FF4E1309D
:1002500000900020ADF80400ADF80600ADF80800ED
:10026000ADF80C000C20ADF80A006946054801F015
:10027000FDFA0121034801F005FA05B000BD0000B8
:10028000000801400038014010B50446102C00D091
:1002900004B904E0AF22074907A001F0F9FC1248B5
:1002A000006820F0100010490860084600682043EC
:1002B000086010BDC41D000849535F464C415348B7
:1002C0005F50524546455443484255465F5354415A
:1002D000544528464C4153485F50726566657463C7
:1002E00068427566290000000020024070B504468F
:1002F00000253CB1012C05D0022C03D0032C01D0E9
:10030000042C00D104E09722054906A001F0C0FCAE
:100310000C48056805F0F8052543056070BD000030
:10032000C41D000849535F464C4153485F4C41543B
:10033000454E435928464C4153485F4C6174656EA5
:10034000637929000020024010B50446802C00D0BB
:1003500004B904E0CB22074907A001F099FC0F483B
:10036000006820F080000D490860084600682043BE
:10037000086010BDC41D000849535F464C415348F6
:100380005F4943414348455F535441544528464CD7
:100390004153485F6943616368652900002002405A
:1003A00010B504463748844211D0374884420ED0F5
:1003B000364884420BD03648844208D035488442BF
:1003C00005D03548844202D03448844200D104E04C
:1003D0007E22334933A001F05BFC2A48844208D1D5
:1003E0000121042000F0A2FD0021042000F09EFD68
:1003F00046E02548844208D10121082000F096FDFE
:100400000021082000F092FD3AE02048844208D103
:100410000121102000F08AFD0021102000F086FD4F
:100420002EE01B48844208D10121202000F07EFDEF
:100430000021202000F07AFD22E01648844208D1F5
:100440000121402000F072FD0021402000F06EFDEF
:1004500016E01148844208D10121802000F066FD99
:100460000021802000F062FD0AE00C48844207D1A0
:100470000121801500F05AFD0021A01500F056FD65
:1004800010BD000000080140000C014000100140B8
:100490000014014000180140001C014000200140F0
:1004A000101E000849535F4750494F5F414C4C5F55
:1004B000504552495048284750494F78290000007C
:1004C0002DE9F05F05460C464FF00009CA460026AC
:1004D0000027B046B3465C48854211D05B48854250
:1004E0000ED05B4885420BD05A48854208D05A4806
:1004F000854205D05948854202D05948854200D1ED
:1005000004E0BE22574958A001F0C2FBE078A0B138
:10051000E078042811D0E07828280ED0E078482828
:100520000BD0E078142808D0E078102805D0E078C7
:100530001C2802D0E078182800D104E0BF224949E5
:1005400050A001F0A5FB002010B9208800B104E004
:10055000C022444956A001F09BFBE07800F00F094F
:10056000E07800F0100098B1A07840B1A07802289F
:1005700005D0A078012802D0A078032800D104E09B
:10058000C722384953A001F083FBA07840EA09094B
:10059000207838B3D5F8008000261FE0012000FA4B
:1005A00006F7208800EA070ABA4516D1B7000F20DF
:1005B00000FA07FB28EA0B0809FA07F040EA0808E6
:1005C000E078282803D10120B040686105E0E07898
:1005D000482802D10120B0402861761C082EDDD3C6
:1005E000C5F800802088FF282BDDD5F80480002680
:1005F00023E006F10800012101FA00F7208800EA53
:10060000070ABA4518D1B7000F2000FA07FB28EAFD
:100610000B0809FA07F040EA0808E078282803D117
:1006200006F1080081406961E078482804D106F1AC
:100630000800012181402961761C082ED9D3C5F814
:100640000480BDE8F09F000000080140000C01405C
:10065000001001400014014000180140001C01403E
:1006600000200140101E000849535F4750494F5F6A
:10067000414C4C5F504552495048284750494F78AB
:100680002900000049535F4750494F5F4D4F444593
:10069000284750494F5F496E69745374727563748B
:1006A0002D3E4750494F5F4D6F64652900000000A3
:1006B00049535F4750494F5F50494E284750494F73
:1006C0005F496E69745374727563742D3E50696E20
:1006D0002900000049535F4750494F5F535045453B
:1006E00044284750494F5F496E697453747275636B
:1006F000742D3E4750494F5F537065656429000073
:1007000070B505460C4600262948854211D0294877
:1007100085420ED0284885420BD02848854208D013
:100720002748854205D02748854202D02648854281
:1007300000D105E040F22912244925A001F0A8FAD1
:10074000012C25D0022C23D0042C21D0082C1FD022
:10075000102C1DD0202C1BD0402C19D0802C17D051
:10076000B4F5807F14D0B4F5007F11D0B4F5806F5C
:100770000ED0B4F5006F0BD0B4F5805F08D0B4F59F
:10078000005F05D0B4F5804F02D0B4F5004F00D122
:1007900005E04FF495720D4914A001F079FAA868AC
:1007A000204008B1012600E00026304670BD000060
:1007B00000080140000C01400010014000140140FD
:1007C00000180140001C014000200140101E0008DC
:1007D00049535F4750494F5F414C4C5F5045524928
:1007E0005048284750494F782900000049535F4737
:1007F00045545F4750494F5F50494E2850696E2914
:100800000000000000BFFEE708B50121042000F051
:1008100041FB1020ADF8000000208DF802004820B8
:100820008DF8030069460248FFF74AFE08BD000044
:100830000008014010B510210148FFF761FF10BD0D
:10084000000801404AF6AA200149086070470000EC
:100850000030004010B504465CB1012C09D0022CD8
:1008600007D0032C05D0042C03D0052C01D0062C76
:1008700000D104E07D22034903A001F009FA0C48ED
:10088000446010BD581E000849535F495744475FF4
:100890005052455343414C45525F444956284957AD
:1008A00044475F5072657363616C65722900000094
:1008B0000030004010B5044645F25550844200D047
:1008C00004B904E06A22034903A001F0E1F90A48EF
:1008D000046010BD581E000849535F495744475FE4
:1008E000575249544528495744475F5772697465C0
:1008F0004163636573732900003000402DE9F047C0
:1009000072B6FFF79FFF45F25550FFF7D3FF062061
:10091000FFF7A0FF304D1120286000F0FFFC2F48AA
:1009200000F01AFE2E48FFF73BFD0121C80500F03C
:1009300065FA00214FF4000000F060FA294C4FF0F6
:10094000000804E0002044F8280008F10108B8F18C
:10095000400FF7D324480768234D48352868401CCA
:1009600058B12E686868E063A868C4F8D400E868E5
:10097000C4F890002869E06422E0781C68B11B4844
:10098000E0631A483830C4F8D40018486830C4F816
:100990009000001DE064164E12E01648E063154812
:1009A0008630C4F8D4001348A830C4F89000001D65
:1009B000E06410481630C4F8E0000D4E28360E4FA3
:1009C00062B6B14600BF87F3088800BF05480B49EF
:1009D0000860C847BDE8F087004C0240003801407D
:1009E0000008014000FF012088F2FF1F670AFF1F77
:1009F000D900FF1FD710FF1F9086002008ED00E0F0
:100A000000BFFEE77047000070B5044600257CB1CA
:100A1000802C0DD0902C0BD0A02C09D0B02C07D05E
:100A2000C02C05D0D02C03D0E02C01D0F02C00D16C
:100A300005E04FF4D572054905A001F029F90C48ED
:100A4000456825F0F0052543456070BDA01E0008EF
:100A500049535F5243435F535953434C4B5F44499F
:100A600056285243435F535953434C4B29000000CF
:100A70000010024070B5044600255CB1B4F5806FEB
:100A800008D0B4F5A06F05D0B4F5C06F02D0B4F5AE
:100A9000E06F00D105E040F2C312054905A001F066
:100AA000F7F80B48456825F4E0652543456070BDBF
:100AB000A01E000849535F5243435F48434C4B5FBD
:100AC000444956285243435F48434C4B2900000099
:100AD0000010024070B5044600255CB1B4F5806F8B
:100AE00008D0B4F5A06F05D0B4F5C06F02D0B4F54E
:100AF000E06F00D105E04FF4EE72064906A001F068
:100B0000C7F80C48456825F4605545EAC4054560BA
:100B100070BD0000A01E000849535F5243435F4868
:100B2000434C4B5F444956285243435F48434C4B28
:100B3000290000000010024070B505460C46002652
:100B40002DB1B5F5803F02D0B5F5403F00D105E0AD
:100B500040F25B12384939A001F09AF8002C59D0C4
:100B6000B4F5802F56D0B4F5002F53D0B4F5402FF4
:100B700050D0B4F5801F4DD0B4F5A01F4AD0B4F5C5
:100B8000C01F47D0B4F5E01F44D0B4F5001F41D0DA
:100B9000B4F5101F3ED0B4F5201F3BD0B4F5301F84
:100BA00038D0B4F5401F35D0B4F5501F32D0B4F56D
:100BB000601F2FD0B4F1006F2CD02848844229D078
:100BC0002748844226D02748844223D0B4F1016FBD
:100BD00020D0254884421DD0244884421AD024487D
:100BE000844217D0B4F1026F14D02248844211D04D
:100BF000214884420ED0214884420BD0B4F1036FC7
:100C000008D01F48844205D01E48844202D01E48A6
:100C1000844200D105E04FF4AE7207491BA001F0F9
:100C200037F8214846682148064045EA0400064353
:100C30001D48466070BD0000A01E000849535F5269
:100C400043435F504C4C5F535243285243435F50E1
:100C50004C4C536F75726365290000000000040856
:100C60000000080800000C08000014080000180824
:100C700000001C08000024080000280800002C08C0
:100C8000000034080000380800003C0849535F5257
:100C900043435F504C4C5F4D554C285243435F508B
:100CA0004C4C4D756C29000000100240FFFFC0F74E
:100CB00070B5044600251CB1012C01D0022C00D1D6
:100CC00005E04FF4C072054905A000F0E1FF0D48B2
:100CD000456825F003052543456070BDA01E00084A
:100CE00049535F5243435F535953434C4B5F5352F5
:100CF00043285243435F535953434C4B536F7572D0
:100D000063652900001002401248006840F00100AD
:100D100010490860084640680F4908400D4948607E
:100D2000084600680D4908400A49086008460068FE
:100D300020F48020086008464068094908400549B9
:100D400048604FF46050C86208634FF41F00886029
:100D5000704700000010024000C0FFF8FFFFF6FEE1
:100D6000FFFF00F770B504460D461148204008B952
:100D700004B105E040F2FE320E490FA000F088FFFA
:100D80000DB1012D00D105E040F2FF32094913A059
:100D900000F07EFF2DB11848C06920431649C86194
:100DA00004E01548C069A0431349C86170BD000044
:100DB00000330141A01E000849535F5243435F4185
:100DC0005042315F504552495048285243435F4199
:100DD00050423150657269706829000049535F467E
:100DE000554E4354494F4E414C5F5354415445284E
:100DF000436D6429000000000010024070B50446F5
:100E00000D461148204008B904B105E040F25542B2
:100E10000E490FA000F03CFF0DB1012D00D105E0FF
:100E200040F25642094913A000F032FF2DB1184894
:100E3000006920431649086104E015480069A04391
:100E40001349086170BD000000330141A01E000875
:100E500049535F5243435F415042315F50455249CD
:100E60005048285243435F41504231506572697087
:100E70006829000049535F46554E4354494F4E413F
:100E80004C5F535441544528436D642900000000D1
:100E90000010024070B504460D461148204008B9C4
:100EA00004B105E040F2DF320E490FA000F0F0FE81
:100EB0000DB1012D00D105E04FF47872094913A05E
:100EC00000F0E6FE2DB1184880692043164988617C
:100ED00004E015488069A0431349886170BD000093
:100EE0000286E0FFA01E000849535F5243435F4162
:100EF0005042325F504552495048285243435F4167
:100F000050423250657269706829000049535F464B
:100F1000554E4354494F4E414C5F5354415445281C
:100F2000436D6429000000000010024070B50446C3
:100F30000D461148204008B904B105E040F237429F
:100F40000E490FA000F0A4FE0DB1012D00D105E067
:100F50004FF48762094913A000F09AFE2DB118489A
:100F6000C06820431649C86004E01548C068A04323
:100F70001349C86070BD00000286E0FFA01E000893
:100F800049535F5243435F415042325F504552499B
:100F90005048285243435F41504232506572697055
:100FA0006829000049535F46554E4354494F4E410E
:100FB0004C5F535441544528436D642900000000A0
:100FC0000010024010B504460CB1012C00D105E020
:100FD00040F24712034904A000F05AFE0948046099
:100FE00010BD0000A01E000849535F46554E4354F3
:100FF000494F4E414C5F535441544528436D642939
:10100000000000000000424210B504460CB1012C63
:1010100000D105E040F26F12034904A000F038FE51
:101020000948046610BD0000A01E000849535F4631
:10103000554E4354494F4E414C5F535441544528FB
:10104000436D64290000000000004242F0B5002119
:1010500000BF002200250024384E7668384F06EA8B
:101060000702364E766806F4803502F000661EB937
:10107000022606EB924204E04FF4F876C6EB924665
:10108000721C1DB92F4E02FB06F30BE02B4E766847
:1010900006F400361EB12B4E02FB06F302E02A4E88
:1010A00002FB06F3254E766806F00C0121B10429F7
:1010B00005D0082908D105E0234E066007E0224E3E
:1010C000066004E0036002E01F4E066000BF00BF40
:1010D0001A4E766806F0F00109091C4E745C066829
:1010E000E6404660154E766806F4E061090A174E40
:1010F000745C4668E6408660104E766806F460517F
:10110000C90A124E745C4668E640C6600B4EF66A29
:1011100006F00F010E4E745C4668B6FBF4F64661AD
:10112000064EF66A06F4F871090901F00F06094F38
:1011300037F81640B3FBF4F60661F0BD001002402C
:1011400000003C0800093D0000127A00841D0008E0
:10115000941D0008A41D00082DE9F0410446002557
:1011600000260027212C1DD0312C1BD0392C19D062
:10117000412C17D0612C15D0732C13D0742C11D0A6
:10118000752C0FD0772C0DD0792C0BD07A2C09D060
:101190007B2C07D07C2C05D07D2C03D07E2C01D05D
:1011A0007F2C00D105E040F2E3420E490EA000F092
:1011B0006FFD6511012D02D11148066806E0022D70
:1011C00002D10F48066A01E00D48466A04F01F0587
:1011D0000120A840304008B1012700E00027384630
:1011E000BDE8F081A01E000849535F5243435F46AB
:1011F0004C4147285243435F464C41472900000079
:10120000001002400248406800F00C0070470000E7
:1012100000100240704700000EB5002002900190BF
:1012200000903848006840F480303649086000BFBC
:1012300034480068C0F3404001900098401C009082
:101240009DF8040018B90098B0F5004FF0D12D4872
:101250000068C0F3404001909DF8040018B92A4886
:101260002A4908600EBD2A48006820F00700284976
:1012700008600846006840F00400086021484068A3
:10128000204948600846406840F4005048600846DD
:10129000406840F4A0604860084640681D49084026
:1012A00018494860084640680290029840F480302F
:1012B000029002980290184902980843029011493E
:1012C000029848600846006840F08070086000BFDF
:1012D0000C48006800F000700028F9D00948406808
:1012E00020F00300074948600846406840F00200CB
:1012F000486000BF0348406800F00C000828F9D19E
:1013000000BFAFE70010024000127A00000000208A
:1013100000200240FFFFC0F70000040810B5FFF7EF
:10132000F3FC0120FFF74EFE00BF2120FFF714FF62
:101330000028FAD001210807FFF714FD1748C068FC
:1013400040F001001549C8600220FEF7CFFF1020D1
:10135000FEF79AFF8020FEF7F7FF0020FFF754FB0F
:101360000020FFF7B7FB4FF48060FFF783FB0C49C9
:101370000020FFF7E1FB0120FFF746FE00BF392008
:10138000FFF7EAFE0028FAD00220FFF791FC00BF29
:10139000FFF738FF0828FBD110BD000000700040A7
:1013A000000004087047000010B52448006840F4AD
:1013B0007000224908602248006840F0010020497E
:1013C0000860084640681F4908401D4948600846B3
:1013D00000681D4908401A4908600846006820F462
:1013E0008020086008464068184908401449486051
:1013F0000020C86208634FF41F0088600846C06977
:1014000040F08050C8611248C06840F001001049A7
:10141000C8600B48C06920F080500949C8610D4878
:10142000006840F090000B490860FFF7F5FE4FF0B0
:10143000006002498039086010BD000088ED00E0BE
:101440000010024000C0FFF8FFFFF6FEFFFF00F7AC
:10145000007000400020024070B504460D46204850
:10146000844211D01F4884420ED01F4884420BD0C2
:101470001E48844208D01E48844205D01D4884423C
:1014800002D01D48844200D105E04FF452721B493E
:101490001BA000F0FDFB4FF69F40284008B905B1A6
:1014A00005E040F2493215491CA000F0F1FB05F4BB
:1014B0000070B0F5007F0FD10948844205D009487B
:1014C000844202D00848844200D105E040F24D3207
:1014D0000A491AA000F0DCFBE843208070BD000040
:1014E000003801400044004000480040004C0040EB
:1014F000005000400050014000540140301F0008DF
:1015000049535F55534152545F414C4C5F504552D3
:1015100049504828555341525478290049535F5542
:10152000534152545F434C4541525F464C4147281A
:1015300055534152545F464C4147290049535F552A
:10154000534152545F3132335F504552495048281D
:10155000555341525478290010B504463A48844204
:1015600011D03A4884420ED0394884420BD03948D1
:10157000844208D03848844205D03848844202D09A
:101580003748844200D104E08822364936A000F072
:101590007FFB2D48844209D101218803FFF7C6FC57
:1015A00000214FF48040FFF7C1FC4CE02748844203
:1015B00009D101214804FFF721FC00214FF400303C
:1015C000FFF71CFC3FE02248844209D10121880436
:1015D000FFF714FC00214FF48020FFF70FFC32E0EE
:1015E0001C48844209D10121C804FFF707FC0021EF
:1015F0004FF40020FFF702FC25E01748844209D190
:1016000001210805FFF7FAFB00214FF48010FFF7D6
:10161000F5FB18E01148844209D101214804FFF785
:1016200085FC00214FF40030FFF780FC0BE00C48F4
:10163000844208D101218804FFF778FC00214FF48F
:101640008020FFF773FC10BD0038014000440040CB
:1016500000480040004C0040005000400050014055
:1016600000540140301F000849535F555341525404
:101670005F414C4C5F5045524950482855534152A8
:101680005478290070B504460D461948844211D09B
:10169000184884420ED0184884420BD01748844220
:1016A00008D01748844205D01648844202D0164814
:1016B000844200D105E040F25912144914A000F010
:1016C000E7FA0DB1012D00D105E04FF4AD720F49DD
:1016D00016A000F0DDFA25B1A08940F40050A081E9
:1016E00004E0A0894DF6FF710840A08170BD0000A4
:1016F000003801400044004000480040004C0040D9
:10170000005000400050014000540140301F0008CC
:1017100049535F55534152545F414C4C5F504552C1
:1017200049504828555341525478290049535F463F
:10173000554E4354494F4E414C5F535441544528F4
:10174000436D64290000000070B505460C46002674
:101750002948854211D0294885420ED02848854223
:101760000BD02848854208D02748854205D0274815
:10177000854202D02648854200D105E040F2193268
:10178000244925A000F084FA012C13D0802C11D01C
:10179000402C0FD0202C0DD0102C0BD0B4F5807F16
:1017A00008D0B4F5007F05D0082C03D0042C01D05C
:1017B000022C00D105E040F21A3216491DA000F0BB
:1017C00067FAB4F5007F0FD10B48854205D00B486E
:1017D000854202D00A48854200D105E040F21E321F
:1017E0000C491BA000F054FA2888204008B10126BB
:1017F00000E00026304670BD003801400044004043
:1018000000480040004C00400050004000500140A3
:1018100000540140301F000849535F555341525452
:101820005F414C4C5F5045524950482855534152F6
:101830005478290049535F55534152545F464C41F7
:10184000472855534152545F464C414729000000F8
:1018500049535F55534152545F3132335F504552C3
:101860004950482855534152547829002DE9F047F2
:1018700086B005460C460026B24600BF00BF0027D2
:101880006748854211D0674885420ED06648854238
:101890000BD06648854208D06548854205D065482A
:1018A000854202D06448854200D104E0C4226349E5
:1018B00063A000F0EDF9206820B1684920688842F3
:1018C00000D204E0C5225D4965A000F0E1F9A088DE
:1018D00018B1A088B0F5805F00D104E0C622574956
:1018E0006BA000F0D5F9E08858B1E088B0F5805FD2
:1018F00007D0E088B0F5005F03D0E088B0F5405F26
:1019000000D104E0C7224D496EA000F0C1F9208942
:1019100038B12089B0F5806F03D02089B0F5C06F51
:1019200000D104E0C822454972A000F0B1F96089F5
:101930004FF6F371084010B9608900B104E0C92284
:101940003E4977A000F0A4F9A08958B1A089B0F56C
:10195000807F07D0A089B0F5007F03D0A089B0F5C3
:10196000407F00D104E0CA223449774800F090F962
:10197000A08970B12A48854205D02A48854202D004
:101980002948854200D104E0CE222C496FA000F006
:101990007FF92F462E8A4CF6FF700640E0880643FA
:1019A0002E82AE894EF6F3100640A08821890843A6
:1019B000618908430643AE81AE8A4FF6FF40064078
:1019C000A0890643AE826846FFF740FB1448874271
:1019D00005D01848874202D01748874202D1DDF867
:1019E0000CA001E0DDF808A00AEBCA0000EB0A1029
:1019F00021688900B0FBF1F86420B8FBF0F0060123
:101A00003009642101FB1089322000EB0910B0FB82
:101A1000F1F000F00F0006432E8106B0BDE8F0871C
:101A2000003801400044004000480040004C0040A5
:101A3000005000400050014000540140301F000899
:101A400049535F55534152545F414C4C5F5045528E
:101A500049504828555341525478290021AA44003E
:101A600049535F55534152545F424155445241548A
:101A7000452855534152545F496E697453747275C9
:101A800063742D3E426175645261746529000000E3
:101A900049535F55534152545F574F52445F4C4531
:101AA0004E4754482855534152545F496E69745308
:101AB00074727563742D3E576F72644C656E6774F3
:101AC0006829000049535F55534152545F53544FA6
:101AD00050424954532855534152545F496E6974DA
:101AE0005374727563742D3E53746F7042697473CE
:101AF0002900000049535F55534152545F504152F1
:101B00004954592855534152545F496E697453746E
:101B1000727563742D3E50617269747929000000FA
:101B200049535F55534152545F4D4F4445285553D7
:101B30004152545F496E69745374727563742D3EDB
:101B40004D6F646529000000E81E000849535F5589
:101B5000534152545F3132335F5045524950482807
:101B6000555341525478290070B504460D46154826
:101B7000844211D0144884420ED0144884420BD0C1
:101B80001348844208D01348844205D01248844246
:101B900002D01248844200D105E04FF4107210497F
:101BA00010A000F075F8B5F5007F00DA05E040F20E
:101BB00041220B4912A000F06BF8C5F30800A08089
:101BC00070BD000000380140004400400048004063
:101BD000004C0040005000400050014000540140C3
:101BE000301F000849535F55534152545F414C4CDC
:101BF0005F50455249504828555341525478290066
:101C000049535F55534152545F4441544128446104
:101C10007461290000BFFEE770B504460D464021FF
:101C20002046FFF719FC29462046FFF79DFF00BF1D
:101C300080212046FFF788FD0028F9D070BD000004
:101C4000014A024900F013B8951C00080800002062
:101C500002E008C8121F08C1002AFAD17047704775
:101C6000002001E001C1121F002AFBD170472DE9BD
:101C7000F04116460F460446002503E03946B047BA
:101C8000641C6D1C20780028F8D12846BDE8F0813E
:101C900000BFFEE770B505460E46ECB20D2C03D131
:101CA00001200B4908600CE00A2C07D108480068A5
:101CB00000B90D2400200649086002E00020044914
:101CC000086021460348FFF7A7FF284670BD0000C3
:101CD0000400002000380140FEF792FAFEF794FD60
:101CE00008A0FFF7ADFF13A0FFF7AAFF00BFFEF7A4
:101CF000A1FD0128FBD01CA0FFF7A2FFFEF7FEFD0F
:101D000000BFFEE74A756D7020746F20426F6F74DC
:101D10002064656D6F2073746172742077697468D4
:101D2000206E6F726D616C207374617465210D0A91
:101D300000000000496620796F752070726573732A
:101D400020533128504134292C73797374656D20E8
:101D500077696C6C206A756D7020746F20424F4FEC
:101D600054210D0A0D0A000053797374656D206AC1
:101D7000756D70656420746F20424F4F54210D0AB9
:101D80000D0A000000000000010203040102030428
:101D90000607080901020406080A0C10202020206A
:101DA00020202020010002000400060008000A0094
:101DB0000C00100020004000800000010001000124
:101DC000000100012E2E5C2E2E5C2E2E5C2E2E5C31
:101DD0002E2E5C2E2E5C6669726D776172655C6E6C
:101DE0003332673435785F7374645F70657269701D
:101DF000685F6472697665725C7372635C6E3332BD
:101E0000673435785F666C6173682E63000000008C
:101E10002E2E5C2E2E5C2E2E5C2E2E5C2E2E5C2EFC
:101E20002E5C6669726D776172655C6E3332673401
:101E300035785F7374645F7065726970685F64722F
:101E4000697665725C7372635C6E333267343578C1
:101E50005F6770696F2E63002E2E5C2E2E5C2E2E17
:101E60005C2E2E5C2E2E5C2E2E5C6669726D776168
:101E700072655C6E3332673435785F7374645F709B
:101E800065726970685F6472697665725C737263AB
:101E90005C6E3332673435785F697764672E630030
:101EA0002E2E5C2E2E5C2E2E5C2E2E5C2E2E5C2E6C
:101EB0002E5C6669726D776172655C6E3332673471
:101EC00035785F7374645F7065726970685F64729F
:101ED000697665725C7372635C6E33326734357831
:101EE0005F7263632E63000049535F555341525440
:101EF0005F48415244574152455F464C4F575F43FC
:101F00004F4E54524F4C2855534152545F496E69BD
:101F1000745374727563742D3E4861726477617294
:101F200065466C6F77436F6E74726F6C29000000AA
:101F30002E2E5C2E2E5C2E2E5C2E2E5C2E2E5C2EDB
:101F40002E5C6669726D776172655C6E33326734E0
:101F500035785F7374645F7065726970685F64720E
:101F6000697665725C7372635C6E333267343578A0
:101F70005F75736172742E63000000009C1F00087F
:101F8000000000200C000000501C0008A81F0008E2
:101F90000C00002004150000601C00080044950897
:081FA000000000000000000039
:040000050800019955
:00000001FF
