:020000042000DA
:1080000018150120AD810020138400200B8400206E
:108010000F84002097820020258A002000000000A5
:10802000000000000000000000000000F9850020B2
:108030009B82002000000000C38100209D8600205C
:10804000C7810020C7810020C7810020C781002090
:10805000C7810020C7810020C7810020C781002080
:10806000C7810020C7810020C7810020C781002070
:10807000C7810020C7810020C7810020C781002060
:10808000C7810020C7810020C7810020C781002050
:10809000C7810020C7810020C7810020C781002040
:1080A000C7810020C7810020C7810020C781002030
:1080B000C781002045870020C7810020C78100209C
:1080C000C7810020C7810020C7810020C781002010
:1080D000C7810020C7810020C7810020C781002000
:1080E000C7810020C7810020C7810020C7810020F0
:1080F000C7810020C7810020C7810020C7810020E0
:10810000C7810020C7810020C7810020C7810020CF
:10811000C7810020C7810020C7810020C7810020BF
:10812000C7810020C7810020C7810020C7810020AF
:10813000C7810020C7810020C7810020C78100209F
:10814000C7810020C7810020C7810020C78100208F
:10815000C7810020C7810020C7810020C78100207F
:10816000C7810020C7810020C7810020C78100206F
:10817000C7810020C7810020C7810020C78100205F
:10818000C7810020C7810020C7810020C78100204F
:10819000C7810020C7810020DFF80CD000F04AF82A
:1081A00000480047698D00201815012006488047C7
:1081B00006480047FEE7FEE7FEE7FEE7FEE7FEE7CC
:1081C000FEE7FEE7FEE7FEE7A1860020998100209A
:1081D0002DE9F05F0546002092469B4688460646FC
:1081E000814640241BE0284641464746224600F08F
:1081F00042F853465A46C01A914110D311461846C8
:10820000224600F029F82D1A67EB01084F46224656
:108210000120002100F020F817EB00094E41201E3C
:10822000A4F10104DFDC484631462A464346BDE856
:10823000F09F0000064C074D06E0E06840F00103A7
:1082400094E8070098471034AC42F6D3FFF7A8FF34
:10825000CC8E0020EC8E0020202A04DB203A00FA8D
:1082600002F1002070479140C2F1200320FA03F38D
:10827000194390407047202A04DB203A21FA02F08B
:108280000021704721FA02F3D040C2F12002914050
:1082900008431946704700BFFEE7704708B54FF422
:1082A0000070ADF8000003208DF8020018208DF852
:1082B000030069460E4800F01DF84FF48060ADF8E9
:1082C000000004208DF803006946094800F012F808
:1082D0004FF48070ADF8000003208DF802001020EC
:1082E0008DF803006946024800F004F808BD00005C
:1082F000000801402DE9F04102460025002600203B
:1083000000230024002791F803C00CF00F0591F81A
:1083100003C00CF0100CBCF1000F03D091F802C0A8
:108320004CEA050591F800C0BCF1000F31D014688B
:1083300000202BE04FF0010C0CFA00F3B1F800C064
:108340000CEA03069E4220D183004FF00F0C0CFA7A
:1083500003F7BC4305FA03FC4CEA040491F803C09C
:10836000BCF1280F06D14FF0010C0CFA00FCC2F84A
:1083700014C00AE091F803C0BCF1480F05D14FF0DA
:10838000010C0CFA00FCC2F810C0401C0828D1D324
:108390001460B1F800C0BCF1FF0F34DD5468002058
:1083A0002EE000F1080C4FF0010808FA0CF3B1F8C8
:1083B00000C00CEA03069E4221D183004FF00F0C4F
:1083C0000CFA03F7BC4305FA03FC4CEA040491F8E9
:1083D00003C0BCF1280F05D100F1080C08FA0CF815
:1083E000C2F8148091F803C0BCF1480F07D100F126
:1083F000080C4FF0010808FA0CF8C2F81080401C75
:108400000828CED35460BDE8F08100BFFEE700BF6E
:10841000FEE7704770B5002100230F22C47804B333
:10842000154C246804F4E064C4F5E064210AC1F149
:108430000403CA40447804FA03F1847814402143C9
:1084400009010E4C0678A155047804F01F0501249B
:10845000AC4005786D11AD0005F1E025C5F800418F
:1084600009E0047804F01F050124AC40044D0678AF
:10847000761145F8264070BD0CED00E000E400E008
:1084800080E100E002490143024A116070470000A8
:108490000000FA050CED00E010B50121052000F008
:1084A00015F80121880300F011F810BD29B1064A22
:1084B000D2690243044BDA6104E0034AD269824381
:1084C000014BDA61704700000010024029B1064AF2
:1084D00092690243044B9A6104E0034A9269824321
:1084E000014B9A617047000000100240F0B5002176
:1084F00000BF002200250024384E7668384F06EA77
:108500000702364E766806F4803502F000661EB922
:10851000022606EB924204E04FF4F876C6EB924650
:10852000721C1DB92F4E02FB06F30BE02B4E766832
:1085300006F400361EB12B4E02FB06F302E02A4E73
:1085400002FB06F3254E766806F00C0121B10429E2
:1085500005D0082908D105E0234E066007E0224E29
:10856000066004E0036002E01F4E066000BF00BF2B
:108570001A4E766806F0F00109091C4E745C066814
:10858000E6404660154E766806F4E061090A174E2B
:10859000745C4668E6408660104E766806F460516A
:1085A000C90A124E745C4668E640C6600B4EF66A15
:1085B00006F00F010E4E745C4668B6FBF4F6466199
:1085C000064EF66A06F4F871090901F00F06094F24
:1085D00037F81640B3FBF4F60661F0BD0010024018
:1085E00000003C0800093D0000127A008C8E00203B
:1085F0009C8E0020AC8E00207047000010B500203B
:1086000000210022214B1B6823F007031F4C23602D
:1086100023461B6843F0030323601D4B5B681C4C1F
:10862000636023465B6843F40053636023465B68E2
:1086300043F4A063636023465B68164C2340144CEC
:1086400063602346586800BF134B184323465860A5
:108650001B6843F08073236000BF0D4B1B6803F061
:108660000073002BF9D00A4B5B6823F00303084C1E
:10867000636023465B6843F00203636000BF044B02
:108680005B6803F00C03082BF9D110BD00200240F9
:1086900000100240FFFFC0F700003C0870470000D8
:1086A00010B52148006840F470001F4908601F4859
:1086B000006840F001001D490860084640681C49F8
:1086C00008401A494860084600681A490840174996
:1086D00008600846006820F480200860084640686A
:1086E00015490840114948600020C86208634FF4EA
:1086F0001F0088600846C06940F08050C8610F487C
:10870000C06840F001000D49C8600848C06920F009
:1087100080500649C8610A48006840F09000084946
:108720000860FFF76BFF10BD88ED00E0001002400D
:1087300000C0FFF8FFFFF6FEFFFF00F700700040EB
:108740000020024010B50121074800F035F850B173
:108750000121054800F018F804A000F065F9002197
:10876000014800F01EF810BD000400400A0D20541E
:10877000696D3320496E74657272757074204F6331
:10878000637572210A0D000002698A430261704715
:108790001AB183890B43838102E083898B438381F0
:1087A000704721B1026842F00102026003E00268F2
:1087B00022F001020260704730B50246002000231B
:1087C0000024156905EA0103958905EA010413B13E
:1087D0000CB1012000E0002030BD00000A4600215D
:1087E00001684D4B98420ED04C4B98420BD0B0F1E3
:1087F000804F08D04A4B984205D04A4B984202D04D
:10880000494B984203D121F0700153881943474BDB
:10881000984206D0464B984203D021F44071D38849
:108820001943016093888385138803853A4B9842E6
:1088300002D03A4B984201D1137A038601238382F6
:108840000168354B98420ED0344B98420BD0B0F1B2
:10885000804F08D0324B984205D0324B984202D01C
:10886000314B984206D1537A13B141F4006101E0D3
:1088700021F40061B0F1804F08D0294B984205D017
:10888000284B984202D0284B98420DD1937A13B1CD
:1088900041F4805101E021F48051D37A13B141F4C5
:1088A000005101E021F40051B0F1804F05D01C4B84
:1088B000984202D01B4B984206D1137B13B141F46E
:1088C000804101E021F48041134B98420BD0134BBF
:1088D000984208D0B0F1804F05D0114B984202D099
:1088E000104B984206D1537B13B141F4004101E093
:1088F00021F4004101604168B0F1804F02D0094B82
:10890000984206D1937B13B141F4807101E021F4C8
:108910008071416070470000002C0140003401402C
:108920000004004000080040000C0040001000401F
:108930000014004021B1828942F40052828104E097
:1089400082894DF6FF731A408281704702460020EB
:10895000B1F5007F00D100BF13880B400BB101209F
:1089600000E00020704700002DE9F04786B0054682
:108970000F460024A24600BF00BF0026B88900B100
:1089800000BF2E462C8A4CF6FF700440F888044342
:108990002C82AC894EF6F3100440B888398908431C
:1089A000798908430443AC81AC8A4FF6FF40044008
:1089B000B8890443AC826846FFF798FD14488642A4
:1089C00005D01448864202D01348864202D1DDF811
:1089D0000CA001E0DDF808A00AEBCA0000EB0A10C9
:1089E00039688900B0FBF1F86420B8FBF0F00401AD
:1089F0002009642101FB1089322000EB0910B0FB33
:108A0000F1F000F00F0004432C8106B0BDE8F087C0
:108A1000003801400050014000540140C1F30802F9
:108A20008280704700BFFEE70FB4054B10B503A965
:108A3000044A029800F018F810BC5DF814FB00001E
:108A4000298D00200000012002E008C8121F08C183
:108A5000002AFAD170477047002001E001C1121FBF
:108A6000002AFBD1704700002DE9FF4F8DB09B46D7
:108A70000F460446002606E025280BD05A460F99DB
:108A80009047641C761C20780028F5D111B0304640
:108A9000BDE8F08F0025A8460122984900E0054373
:108AA00014F8013F203B02FA03F00842F7D1207886
:108AB0002E2817D114F8010F45F004052A280ED0EE
:108AC0006FF02F022078A0F1300109290AD808EBB5
:108AD000880102EB410100EB0108641CF2E757F842
:108AE000048B641C20786C280DD004DC4C2812D038
:108AF0006A2811D104E074280DD07A280CD10AE03C
:108B000045F4001507E0617845F48015814202D1F3
:108B1000641C05F58015641C2278692A45D008DCA0
:108B2000002AB3D0582A69D0632A10D0642A08D109
:108B30003BE0702A67D0732A13D0752A5CD0782A5C
:108B40005CD010465A460F999047761CD3E017F830
:108B5000040B8DF8000000208DF80100E94601208B
:108B600003E057F8049B4FF0FF3069074FF0000512
:108B700001D40AE06D1C45450DDA8542FADB19F88F
:108B800005100029F6D106E06D1C8542FCDB19F8C2
:108B900005100029F8D12E4404E019F8010B5A46BB
:108BA0000F9990476D1EF8D2A5E00A200021CDE96B
:108BB0000801C5F3025002280DD001CFC117031ED2
:108BC00071F100030DDA4FF0000CD0EB0C006CEBF0
:108BD00001012D2308E0FF1D27F00707F7E8020138
:108BE000EDE72B0504D52B238DF8283001233BE03E
:108BF000EB0739D02023F7E70A2000E010200021FE
:108C0000CDE9080107E01020002145F00405CDE979
:108C100008014FF00808C5F3025002280FD001CF19
:108C200000214FF0000A2B071FD5702A0DD0DDE977
:108C300008C38CF0100C5CEA030C0CD015E0FF1D8F
:108C400027F00707F7E80201EBE740228DF828201C
:108C50004FF0010A0BE050EA010306D030238DF8F3
:108C600028308DF8292002239A46582A04D024A2BD
:108C70000DF120090B9209E026A2F9E7DDE90823AE
:108C8000FFF7A6FA0B9B9B5C09F8013D50EA010235
:108C9000F4D1ADEB090020300890680701D44FF003
:108CA00001080899884502DDA8EB010000E00020DA
:108CB0008046002506E00AA85A46405D0F99904775
:108CC0006D1C761C5545F6DB04E030205A460F99A2
:108CD0009047761CB8F10001A8F10108F5DC05E029
:108CE00019F8010B5A460F999047761C0899481EAF
:108CF00008900029F4DC641CC5E600000928010086
:108D00003031323334353637383961626364656601
:108D100000000000303132333435363738394142C3
:108D2000434445460000000070B504460D46E1B2DC
:108D30000548FFF773FE00BF80210348FFF706FEDA
:108D40000028F9D0204670BD00380140002107E01E
:108D50004FF4615100BF0A1EA1F10101FBD1401E79
:108D60000028F5D170470000FFF796FBFFF796FA51
:108D70004FF4E1301549086000208880C8800881E0
:108D800088810C2048811248FFF7EEFD0121104830
:108D9000FFF7D0FD0FA0FFF747FE1548016815A0AB
:108DA000FFF742FE472142F2AC6000F03BF80CE0D6
:108DB0004FF4FA70FFF7CAFF1348006880F4807020
:108DC0001149086011A0FFF72FFEF1E70400012010
:108DD000003801400A0D2052756E20496E205372F2
:108DE000616D20506F77657255700A0D00000000AC
:108DF00008ED00E00A0D205343422D3E56544F52D9
:108E0000203D2025780A0D000C0801400A0D205253
:108E1000756E20496E205372616D2E2E2E200A0D24
:108E20000000000030B585B005460C460121022047
:108E3000FFF73CFBADF80850ADF804400020ADF85A
:108E40000A00ADF8060001A90F48FFF7C7FC012290
:108E500011460D48FFF79CFC4FF4A060FFF712FB92
:108E60001D208DF8000001208DF801008DF8020012
:108E70008DF803006846FFF7CDFA01210248FFF79D
:108E800090FC05B030BD0000000400400000000070
:108E90000102030401020304060708090102040693
:108EA000080A0C1020202020202020200100020091
:108EB0000400060008000A000C001000200040001A
:108EC000800000010001000100010001EC8E002083
:108ED0000000012004000000488A0020F08E0020DD
:108EE0000400012014150000588A00200000000032
:0400000520008199BD
:00000001FF
