:020000040800F2
:1040000018550020AD4100089B4300089743000865
:104010009943000897420008D948000800000000B2
:10402000000000000000000000000000354500080E
:104030009942000800000000C3410008AD45000897
:10404000C7410008C7410008C7410008C741000830
:10405000C7410008C7410008C7410008C741000820
:10406000C7410008C7410008C7410008C741000810
:10407000C7410008C7410008C7410008C741000800
:10408000C7410008C7410008C7410008C7410008F0
:10409000C7410008C7410008C7410008C7410008E0
:1040A000C7410008C7410008C7410008C7410008D0
:1040B000C741000835460008C7410008C74100084D
:1040C000C7410008C7410008C7410008C7410008B0
:1040D000C7410008C7410008C7410008C7410008A0
:1040E000C7410008C7410008C7410008C741000890
:1040F000C7410008C7410008C7410008C741000880
:10410000C7410008C7410008C7410008C74100086F
:10411000C7410008C7410008C7410008C74100085F
:10412000C7410008C7410008C7410008C74100084F
:10413000C7410008C7410008C7410008C74100083F
:10414000C7410008C7410008C7410008C74100082F
:10415000C7410008C7410008C7410008C74100081F
:10416000C7410008C7410008C7410008C74100080F
:10417000C7410008C7410008C7410008C7410008FF
:10418000C7410008C7410008C7410008C7410008EF
:10419000C7410008C7410008DFF80CD000F04AF81A
:1041A00000480047194C0008185500200648804771
:1041B00006480047FEE7FEE7FEE7FEE7FEE7FEE70C
:1041C000FEE7FEE7FEE7FEE7B1450008994100087B
:1041D0002DE9F05F0546002092469B46884606463C
:1041E000814640241BE0284641464746224600F0CF
:1041F00042F853465A46C01A914110D31146184608
:10420000224600F029F82D1A67EB01084F46224696
:104210000120002100F020F817EB00094E41201E7C
:10422000A4F10104DFDC484631462A464346BDE896
:10423000F09F0000064C074D06E0E06840F00103E7
:1042400094E8070098471034AC42F6D3FFF7A8FF74
:10425000804D0008A04D0008202A04DB203A00FA17
:1042600002F1002070479140C2F1200320FA03F3CD
:10427000194390407047202A04DB203A21FA02F0CB
:104280000021704721FA02F3D040C2F12002914090
:10429000084319467047FEE77047000038B54FF4F1
:1042A0000070ADF8000003248DF8024018208DF84E
:1042B00003000E4D6946284600F01AF82915ADF89E
:1042C000001004218DF803106946284600F010F80C
:1042D000A915ADF800108DF8024010218DF80310DB
:1042E0006946284600F004F838BD00000008014087
:1042F0002DE9F0410022CC7804F00F03E40601D54B
:104300008C7823430C784FF00F0714F0FF0F4FF019
:10431000010C1CD005680CFA02F40E882640A64257
:1043200011D1960007FA06F825EA080503FA06F8FF
:1043300048EA0505CE78282E02D0482E02D002E0A9
:10434000446100E00461521C082AE4D305600A8835
:10435000FF2A1ED94568002202F108060CFA06F46D
:104360000E882640A64210D1960007FA06F825EAE4
:10437000080503FA06F848EA0505CE78282E00D18C
:104380004461CE78482E00D10461521C082AE3D340
:104390004560BDE8F081FEE7FEE7704770B50F238A
:1043A000C27801260178002A1ED0144A126802F44D
:1043B000E062C2F5E062120AC2F10404D34045781B
:1043C000A54082781A402A43120101F1E02181F8C8
:1043D0000024007800F01F018E404009800000F1A9
:1043E000E020C0F8006170BD01F01F008640480960
:1043F000800000F1E020C0F8806170BD0CED00E0AD
:104400000249084302490860704700000000FA05AD
:104410000CED00E010B50121052000F015F8012198
:10442000BDE81040880300F00FB80000054A0029DD
:1044300003D0D1690143D1617047D1698143D16112
:104440007047000000100240054A002903D091691E
:104450000143916170479169814391617047000008
:104460000010024030B52E4B59682E4A11405A6850
:1044700002F480320C0103D4022404EB914103E0E6
:104480006FF4F77404EB91412AB15A68920305D591
:10449000254A514304E0244A514301E0234A514351
:1044A0005A6802F00C02214C92B3042A33D0082A35
:1044B00033D004605A6802F0F00212091C4CA55C6B
:1044C0000268EA4042605D6805F4E0652D0A655DBA
:1044D00022FA05F585605D6805F46055ED0A645DB6
:1044E00022FA04F4C460DC6A04F00F04104D1035A5
:1044F0002C5DB2FBF4F24261DA6A120902F00F029B
:1045000005F1100333F81220B1FBF2F1016130BD67
:10451000FFE70460CEE70460CCE70160CAE7000073
:104520000010024000003C0800093D0000127A0023
:10453000404D0008704700001848016821F007014D
:104540000160016841F00301016015484168416064
:10455000416841F400514160416841F4A06141600B
:104560004168104A1140416041680F4A114341605F
:10457000016841F08071016001688901FCD54168E2
:1045800021F003014160416841F00201416041684E
:10459000C1F381010229FAD17047000000200240D6
:1045A00000100240FFFFC0F700003C087047000009
:1045B0001948016841F4700101601848016841F030
:1045C000010101604168164A114041600168154AC5
:1045D00011400160016821F4802101604168124AA4
:1045E000114041600021C16201634FF41F018160ED
:1045F000C16941F08051C1610C49CA6842F00102B1
:10460000CA60C16921F08051C1610948016841F067
:1046100090010160FFF790BF88ED00E000100240BC
:1046200000C0FFF8FFFFF6FEFFFF00F7007000403C
:104630000020024010B50A4C0121204600F03AF853
:1046400000280CD00121204600F01AF805A000F047
:1046500045F92046BDE81040002100F01FB810BD0C
:10466000000400400A0D2054696D3320496E7465C2
:104670007272757074204F63637572210A0D0000A9
:1046800002698A4302617047002A03D082890A4383
:104690008281704782898A4382817047002904D0D1
:1046A000016841F0010101607047016821F00101DA
:1046B000016070470246002013690B4092890A404E
:1046C000002B02D0002A00D0012070472DE9F041D4
:1046D0000268494CDFF81481454D464E2705474B8B
:1046E000404509D0A84207D0B84205D0A04203D027
:1046F000984201D0B04204D122F0700C4A8842EABC
:104700000C02DFF8FCC0604508D0DFF8F8C0604557
:1047100004D022F4407CCA8842EA0C0202608A88F3
:1047200082850A880285404501D0A84201D10A7AD3
:104730000286012282820268404509D0A84207D041
:10474000B84205D0A04203D0984201D0B04209D16E
:1047500091F809C0BCF1000F02D042F4006201E000
:1047600022F40062B84205D0A04203D0984201D0A2
:10477000B0420DD18E7A16B142F4805201E022F49B
:104780008052CE7A16B142F4005201E022F4005277
:10479000B84203D0A04201D0984206D10E7B16B198
:1047A00042F4804201E022F48042404507D0A84212
:1047B00005D0B84203D0A04201D0984206D14C7B2C
:1047C00014B142F4004201E022F400420260426867
:1047D000B84201D0984206D1897B11B142F480726F
:1047E00001E022F480724260BDE8F081002C0140BB
:1047F00000340140000C004000040040000800406C
:104800000010004000140040002904D0818941F4C8
:10481000005181817047818921F400518181704765
:104820000246002012880A4200D001207047000092
:1048300030B587B004460D46208A4CF6FF7108401B
:10484000E98801432182A0894EF6F3110840A98826
:104850002A8911436A8902431143A181A08A4FF634
:10486000FF410840A9890143A18201A8FFF7FAFD91
:104870001448844205D014498C4202D013498C421A
:1048800001D1049800E0039800EBC00101EB001097
:1048900029688900B0FBF1F06423B0FBF3F1090152
:1048A0000A096FF018056A4300EB8200322202EB1E
:1048B0000010B0FBF3F000F00F000843208107B0B8
:1048C00030BD00000038014000500140005401405C
:1048D000C1F3080181807047FEE700000FB4054B6B
:1048E00010B503A9044A029800F018F810BC5DF84E
:1048F00014FB0000DD4B00080040002002E008C867
:10490000121F08C1002AFAD170477047002001E049
:1049100001C1121F002AFBD1704700002DE9FF4F93
:104920008DB09B460F460446002606E025280BD096
:104930005A460F999047641C761C20780028F5D1C0
:1049400011B03046BDE8F08F0025A84601229849F5
:1049500000E0054314F8013F203B02FA03F008424F
:10496000F7D120782E2817D114F8010F45F004054F
:104970002A280ED06FF02F022078A0F130010929EB
:104980000AD808EB880102EB410100EB0108641C26
:10499000F2E757F8048B641C20786C280DD004DCF7
:1049A0004C2812D06A2811D104E074280DD07A283E
:1049B0000CD10AE045F4001507E0617845F4801554
:1049C000814202D1641C05F58015641C2278692A95
:1049D00045D008DC002AB3D0582A69D0632A10D009
:1049E000642A08D13BE0702A67D0732A13D0752A55
:1049F0005CD0782A5CD010465A460F999047761CB6
:104A0000D3E017F8040B8DF8000000208DF80100AA
:104A1000E946012003E057F8049B4FF0FF30690797
:104A20004FF0000501D40AE06D1C45450DDA8542C2
:104A3000FADB19F805100029F6D106E06D1C854255
:104A4000FCDB19F805100029F8D12E4404E019F810
:104A5000010B5A460F9990476D1EF8D2A5E00A2027
:104A60000021CDE90801C5F3025002280DD001CF85
:104A7000C117031E71F100030DDA4FF0000CD0EBEB
:104A80000C006CEB01012D2308E0FF1D27F0070748
:104A9000F7E80201EDE72B0504D52B238DF828302C
:104AA00001233BE0EB0739D02023F7E70A2000E0A1
:104AB00010200021CDE9080107E01020002145F079
:104AC0000405CDE908014FF00808C5F3025002289B
:104AD0000FD001CF00214FF0000A2B071FD5702AFD
:104AE0000DD0DDE908C38CF0100C5CEA030C0CD08F
:104AF00015E0FF1D27F00707F7E80201EBE740226A
:104B00008DF828204FF0010A0BE050EA010306D08F
:104B100030238DF828308DF8292002239A46582A10
:104B200004D024A20DF120090B9209E026A2F9E796
:104B3000DDE90823FFF74CFB0B9B9B5C09F8013D6B
:104B400050EA0102F4D1ADEB09002030089068076B
:104B500001D44FF001080899884502DDA8EB010057
:104B600000E000208046002506E00AA85A46405D85
:104B70000F9990476D1C761C5545F6DB04E03020FC
:104B80005A460F999047761CB8F10001A8F1010828
:104B9000F5DC05E019F8010B5A460F999047761C91
:104BA0000899481E08900029F4DC641CC5E6000042
:104BB00009280100303132333435363738396162F3
:104BC00063646566000000003031323334353637B7
:104BD00038394142434445460000000070B5044660
:104BE000064DE1B22846FFF773FE80212846FFF705
:104BF00017FE0028F9D0204670BD000000380140A3
:104C0000002808D04FF461531946491E4A1CFCD1B4
:104C1000401E0028F8D17047FFF7FCFBFFF73EFB72
:104C200017484FF4E131016000218180C18001818A
:104C300081810C214181134C01462046FFF7F8FD8C
:104C400001212046FFF7E0FD0FA0FFF747FE1548C2
:104C5000016815A0FFF742FE472142F2AC6000F068
:104C60003BF8164C4FF4FA752846FFF7C9FF216848
:104C700081F48071216012A0FFF730FEF4E700009C
:104C800004400020003801400A0D2052756E204972
:104C90006E20466C61736820506F77657255700A9C
:104CA0000D00000008ED00E00A0D205343422D3EA8
:104CB00056544F52203D2025780A0D000C08014023
:104CC0000A0D2052756E20496E20466C6173682E65
:104CD0002E2E200A0D00000030B585B004460D468A
:104CE00001210220FFF7A2FBADF80840ADF8045007
:104CF0000020ADF80A00ADF80600104C01A92046CE
:104D0000FFF7E4FC012211462046FFF7BDFC4FF4FB
:104D1000A060FFF775FB1D218DF8001001218DF8B3
:104D200001108DF802108DF803106846FFF736FB6E
:104D300001212046FFF7B2FC05B030BD0004004061
:104D40000000000001020304010203040607080931
:104D500001020406080A0C10202020202020202018
:104D6000010002000400060008000A000C00100008
:104D7000200040008000000100010001000100014E
:104D8000A04D00080040002004000000FC4800087E
:104D9000A44D000804400020141500000C49000830
:044DA000000000000F
:040000050800419915
:00000001FF
